{
  "_format": "hh-sol-artifact-1",
  "contractName": "ArbitrageExecutor",
  "sourceName": "contracts/ArbitrageExecutor.sol",
  "abi": [
    {
      "inputs": [],
      "name": "ReentrancyGuardReentrantCall",
      "type": "error"
    },
    {
      "anonymous": false,
      "inputs": [
        {
          "indexed": true,
          "internalType": "address",
          "name": "user",
          "type": "address"
        },
        {
          "indexed": false,
          "internalType": "uint256",
          "name": "amount",
          "type": "uint256"
        }
      ],
      "name": "Deposit",
      "type": "event"
    },
    {
      "anonymous": false,
      "inputs": [
        {
          "indexed": true,
          "internalType": "address",
          "name": "user",
          "type": "address"
        },
        {
          "indexed": false,
          "internalType": "uint256",
          "name": "amount",
          "type": "uint256"
        }
      ],
      "name": "Withdraw",
      "type": "event"
    },
    {
      "inputs": [
        {
          "internalType": "address",
          "name": "",
          "type": "address"
        }
      ],
      "name": "balances",
      "outputs": [
        {
          "internalType": "uint256",
          "name": "",
          "type": "uint256"
        }
      ],
      "stateMutability": "view",
      "type": "function"
    },
    {
      "inputs": [
        {
          "internalType": "address",
          "name": "token",
          "type": "address"
        },
        {
          "internalType": "uint256",
          "name": "amount",
          "type": "uint256"
        }
      ],
      "name": "deposit",
      "outputs": [],
      "stateMutability": "nonpayable",
      "type": "function"
    },
    {
      "inputs": [],
      "name": "deposit",
      "outputs": [],
      "stateMutability": "payable",
      "type": "function"
    },
    {
      "inputs": [
        {
          "internalType": "address",
          "name": "",
          "type": "address"
        },
        {
          "internalType": "address",
          "name": "",
          "type": "address"
        }
      ],
      "name": "tokenBalances",
      "outputs": [
        {
          "internalType": "uint256",
          "name": "",
          "type": "uint256"
        }
      ],
      "stateMutability": "view",
      "type": "function"
    },
    {
      "inputs": [
        {
          "internalType": "uint256",
          "name": "amount",
          "type": "uint256"
        }
      ],
      "name": "withdraw",
      "outputs": [],
      "stateMutability": "nonpayable",
      "type": "function"
    },
    {
      "inputs": [
        {
          "internalType": "address",
          "name": "token",
          "type": "address"
        },
        {
          "internalType": "uint256",
          "name": "amount",
          "type": "uint256"
        }
      ],
      "name": "withdrawToken",
      "outputs": [],
      "stateMutability": "nonpayable",
      "type": "function"
    }
  ],
  "bytecode": "0x608060405234801561001057600080fd5b506001600081905550610db3806100286000396000f3fe6080604052600436106100555760003560e01c806327e235e31461005a5780632e1a7d4d1461009757806347e7ef24146100c05780634dbf6c5a146100e95780639e281a9814610126578063d0e30db01461014f575b600080fd5b34801561006657600080fd5b50610081600480360381019061007c91906108d1565b610159565b60405161008e9190610917565b60405180910390f35b3480156100a357600080fd5b506100be60048036038101906100b9919061095e565b610171565b005b3480156100cc57600080fd5b506100e760048036038101906100e2919061098b565b610357565b005b3480156100f557600080fd5b50610110600480360381019061010b91906109cb565b610510565b60405161011d9190610917565b60405180910390f35b34801561013257600080fd5b5061014d6004803603810190610148919061098b565b610535565b005b610157610768565b005b60016020528060005260406000206000915090505481565b61017961081e565b80600160003373ffffffffffffffffffffffffffffffffffffffff1673ffffffffffffffffffffffffffffffffffffffff1681526020019081526020016000205410156101fb576040517f08c379a00000000000000000000000000000000000000000000000000000000081526004016101f290610a68565b60405180910390fd5b80600160003373ffffffffffffffffffffffffffffffffffffffff1673ffffffffffffffffffffffffffffffffffffffff168152602001908152602001600020600082825461024a9190610ab7565b9250508190555060003373ffffffffffffffffffffffffffffffffffffffff168260405161027790610b1c565b60006040518083038185875af1925050503d80600081146102b4576040519150601f19603f3d011682016040523d82523d6000602084013e6102b9565b606091505b50509050806102fd576040517f08c379a00000000000000000000000000000000000000000000000000000000081526004016102f490610b7d565b60405180910390fd5b3373ffffffffffffffffffffffffffffffffffffffff167f884edad9ce6fa2440d8a54cc123490eb96d2768479d49ff9c7366125a9424364836040516103439190610917565b60405180910390a250610354610864565b50565b61035f61081e565b600081116103a2576040517f08c379a000000000000000000000000000000000000000000000000000000000815260040161039990610be9565b60405180910390fd5b8173ffffffffffffffffffffffffffffffffffffffff166323b872dd3330846040518463ffffffff1660e01b81526004016103df93929190610c18565b6020604051808303816000875af11580156103fe573d6000803e3d6000fd5b505050506040513d601f19601f820116820180604052508101906104229190610c87565b5080600260003373ffffffffffffffffffffffffffffffffffffffff1673ffffffffffffffffffffffffffffffffffffffff16815260200190815260200160002060008473ffffffffffffffffffffffffffffffffffffffff1673ffffffffffffffffffffffffffffffffffffffff16815260200190815260200160002060008282546104af9190610cb4565b925050819055503373ffffffffffffffffffffffffffffffffffffffff167fe1fffcc4923d04b559f4d29a8bfc6cda04eb5b0d3c460751c2402c5c5cc9109c826040516104fc9190610917565b60405180910390a261050c610864565b5050565b6002602052816000526040600020602052806000526040600020600091509150505481565b61053d61081e565b80600260003373ffffffffffffffffffffffffffffffffffffffff1673ffffffffffffffffffffffffffffffffffffffff16815260200190815260200160002060008473ffffffffffffffffffffffffffffffffffffffff1673ffffffffffffffffffffffffffffffffffffffff1681526020019081526020016000205410156105fc576040517f08c379a00000000000000000000000000000000000000000000000000000000081526004016105f390610d34565b60405180910390fd5b80600260003373ffffffffffffffffffffffffffffffffffffffff1673ffffffffffffffffffffffffffffffffffffffff16815260200190815260200160002060008473ffffffffffffffffffffffffffffffffffffffff1673ffffffffffffffffffffffffffffffffffffffff16815260200190815260200160002060008282546106889190610ab7565b925050819055508173ffffffffffffffffffffffffffffffffffffffff1663a9059cbb33836040518363ffffffff1660e01b81526004016106ca929190610d54565b6020604051808303816000875af11580156106e9573d6000803e3d6000fd5b505050506040513d601f19601f8201168201806040525081019061070d9190610c87565b503373ffffffffffffffffffffffffffffffffffffffff167f884edad9ce6fa2440d8a54cc123490eb96d2768479d49ff9c7366125a9424364826040516107549190610917565b60405180910390a2610764610864565b5050565b61077061081e565b34600160003373ffffffffffffffffffffffffffffffffffffffff1673ffffffffffffffffffffffffffffffffffffffff16815260200190815260200160002060008282546107bf9190610cb4565b925050819055503373ffffffffffffffffffffffffffffffffffffffff167fe1fffcc4923d04b559f4d29a8bfc6cda04eb5b0d3c460751c2402c5c5cc9109c3460405161080c9190610917565b60405180910390a261081c610864565b565b60026000540361085a576040517f3ee5aeb500000000000000000000000000000000000000000000000000000000815260040160405180910390fd5b6002600081905550565b6001600081905550565b600080fd5b600073ffffffffffffffffffffffffffffffffffffffff82169050919050565b600061089e82610873565b9050919050565b6108ae81610893565b81146108b957600080fd5b50565b6000813590506108cb816108a5565b92915050565b6000602082840312156108e7576108e661086e565b5b60006108f5848285016108bc565b91505092915050565b6000819050919050565b610911816108fe565b82525050565b600060208201905061092c6000830184610908565b92915050565b61093b816108fe565b811461094657600080fd5b50565b60008135905061095881610932565b92915050565b6000602082840312156109745761097361086e565b5b600061098284828501610949565b91505092915050565b600080604083850312156109a2576109a161086e565b5b60006109b0858286016108bc565b92505060206109c185828601610949565b9150509250929050565b600080604083850312156109e2576109e161086e565b5b60006109f0858286016108bc565b9250506020610a01858286016108bc565b9150509250929050565b600082825260208201905092915050565b7f496e73756666696369656e742062616c616e6365730000000000000000000000600082015250565b6000610a52601583610a0b565b9150610a5d82610a1c565b602082019050919050565b60006020820190508181036000830152610a8181610a45565b9050919050565b7f4e487b7100000000000000000000000000000000000000000000000000000000600052601160045260246000fd5b6000610ac2826108fe565b9150610acd836108fe565b9250828203905081811115610ae557610ae4610a88565b5b92915050565b600081905092915050565b50565b6000610b06600083610aeb565b9150610b1182610af6565b600082019050919050565b6000610b2782610af9565b9150819050919050565b7f5769746864726177206661696c65640000000000000000000000000000000000600082015250565b6000610b67600f83610a0b565b9150610b7282610b31565b602082019050919050565b60006020820190508181036000830152610b9681610b5a565b9050919050565b7f416d6f756e74206d7573742062652067726561746572207468616e207a65726f600082015250565b6000610bd3602083610a0b565b9150610bde82610b9d565b602082019050919050565b60006020820190508181036000830152610c0281610bc6565b9050919050565b610c1281610893565b82525050565b6000606082019050610c2d6000830186610c09565b610c3a6020830185610c09565b610c476040830184610908565b949350505050565b60008115159050919050565b610c6481610c4f565b8114610c6f57600080fd5b50565b600081519050610c8181610c5b565b92915050565b600060208284031215610c9d57610c9c61086e565b5b6000610cab84828501610c72565b91505092915050565b6000610cbf826108fe565b9150610cca836108fe565b9250828201905080821115610ce257610ce1610a88565b5b92915050565b7f496e73756666696369656e7420746f6b656e2062616c616e6365000000000000600082015250565b6000610d1e601a83610a0b565b9150610d2982610ce8565b602082019050919050565b60006020820190508181036000830152610d4d81610d11565b9050919050565b6000604082019050610d696000830185610c09565b610d766020830184610908565b939250505056fea2646970667358221220c928c9354b29011879a050edc92b5a30ba3b41ed6216298a09d1236ed34d510664736f6c63430008140033",
  "linkReferences": {},
  "deployedLinkReferences": {}
}