{
  "_format": "hh-sol-artifact-1",
  "contractName": "ArbitrageExecutor",
  "sourceName": "contracts/ArbitrageExecutor.sol",
  "abi": [
    {
      "inputs": [
        {
          "internalType": "address",
          "name": "router",
          "type": "address"
        }
      ],
      "stateMutability": "nonpayable",
      "type": "constructor"
    },
    {
      "inputs": [],
      "name": "ReentrancyGuardReentrantCall",
      "type": "error"
    },
    {
      "anonymous": false,
      "inputs": [
        {
          "indexed": true,
          "internalType": "address",
          "name": "user",
          "type": "address"
        },
        {
          "indexed": false,
          "internalType": "uint256",
          "name": "amount",
          "type": "uint256"
        }
      ],
      "name": "Deposit",
      "type": "event"
    },
    {
      "anonymous": false,
      "inputs": [
        {
          "indexed": false,
          "internalType": "uint256",
          "name": "profit",
          "type": "uint256"
        }
      ],
      "name": "ProfitLogged",
      "type": "event"
    },
    {
      "anonymous": false,
      "inputs": [
        {
          "indexed": true,
          "internalType": "address",
          "name": "caller",
          "type": "address"
        },
        {
          "indexed": true,
          "internalType": "address",
          "name": "tokenIn",
          "type": "address"
        },
        {
          "indexed": true,
          "internalType": "address",
          "name": "tokenOut",
          "type": "address"
        },
        {
          "indexed": false,
          "internalType": "uint256",
          "name": "amountIn",
          "type": "uint256"
        },
        {
          "indexed": false,
          "internalType": "uint256",
          "name": "amountOut",
          "type": "uint256"
        }
      ],
      "name": "SwapExecuted",
      "type": "event"
    },
    {
      "anonymous": false,
      "inputs": [
        {
          "indexed": true,
          "internalType": "address",
          "name": "user",
          "type": "address"
        },
        {
          "indexed": false,
          "internalType": "uint256",
          "name": "amount",
          "type": "uint256"
        }
      ],
      "name": "Withdraw",
      "type": "event"
    },
    {
      "inputs": [],
      "name": "UNISWAP_ROUTER",
      "outputs": [
        {
          "internalType": "address",
          "name": "",
          "type": "address"
        }
      ],
      "stateMutability": "view",
      "type": "function"
    },
    {
      "inputs": [
        {
          "internalType": "address",
          "name": "",
          "type": "address"
        }
      ],
      "name": "balances",
      "outputs": [
        {
          "internalType": "uint256",
          "name": "",
          "type": "uint256"
        }
      ],
      "stateMutability": "view",
      "type": "function"
    },
    {
      "inputs": [
        {
          "internalType": "address",
          "name": "token",
          "type": "address"
        },
        {
          "internalType": "uint256",
          "name": "amount",
          "type": "uint256"
        }
      ],
      "name": "deposit",
      "outputs": [],
      "stateMutability": "nonpayable",
      "type": "function"
    },
    {
      "inputs": [],
      "name": "deposit",
      "outputs": [],
      "stateMutability": "payable",
      "type": "function"
    },
    {
      "inputs": [
        {
          "internalType": "address",
          "name": "tokenIn",
          "type": "address"
        },
        {
          "internalType": "address",
          "name": "tokenOut",
          "type": "address"
        },
        {
          "internalType": "uint256",
          "name": "amount",
          "type": "uint256"
        }
      ],
      "name": "executeSwap",
      "outputs": [
        {
          "internalType": "uint256",
          "name": "amountOutReceived",
          "type": "uint256"
        }
      ],
      "stateMutability": "nonpayable",
      "type": "function"
    },
    {
      "inputs": [
        {
          "internalType": "address",
          "name": "",
          "type": "address"
        },
        {
          "internalType": "address",
          "name": "",
          "type": "address"
        }
      ],
      "name": "tokenBalances",
      "outputs": [
        {
          "internalType": "uint256",
          "name": "",
          "type": "uint256"
        }
      ],
      "stateMutability": "view",
      "type": "function"
    },
    {
      "inputs": [
        {
          "internalType": "uint256",
          "name": "amount",
          "type": "uint256"
        }
      ],
      "name": "withdraw",
      "outputs": [],
      "stateMutability": "nonpayable",
      "type": "function"
    },
    {
      "inputs": [
        {
          "internalType": "address",
          "name": "token",
          "type": "address"
        },
        {
          "internalType": "uint256",
          "name": "amount",
          "type": "uint256"
        }
      ],
      "name": "withdrawToken",
      "outputs": [],
      "stateMutability": "nonpayable",
      "type": "function"
    }
  ],
  "bytecode": "0x60a06040523480156200001157600080fd5b5060405162001771380380620017718339818101604052810190620000379190620000e4565b60016000819055508073ffffffffffffffffffffffffffffffffffffffff1660808173ffffffffffffffffffffffffffffffffffffffff16815250505062000116565b600080fd5b600073ffffffffffffffffffffffffffffffffffffffff82169050919050565b6000620000ac826200007f565b9050919050565b620000be816200009f565b8114620000ca57600080fd5b50565b600081519050620000de81620000b3565b92915050565b600060208284031215620000fd57620000fc6200007a565b5b60006200010d84828501620000cd565b91505092915050565b6080516116316200014060003960008181610254015281816104060152610c2501526116316000f3fe60806040526004361061007b5760003560e01c80634dbf6c5a1161004e5780634dbf6c5a1461014c5780639e281a9814610189578063d0e30db0146101b2578063d8264920146101bc5761007b565b80630da3a0291461008057806327e235e3146100bd5780632e1a7d4d146100fa57806347e7ef2414610123575b600080fd5b34801561008c57600080fd5b506100a760048036038101906100a29190610d3f565b6101e7565b6040516100b49190610da1565b60405180910390f35b3480156100c957600080fd5b506100e460048036038101906100df9190610dbc565b61055e565b6040516100f19190610da1565b60405180910390f35b34801561010657600080fd5b50610121600480360381019061011c9190610de9565b610576565b005b34801561012f57600080fd5b5061014a60048036038101906101459190610e16565b61075c565b005b34801561015857600080fd5b50610173600480360381019061016e9190610e56565b610915565b6040516101809190610da1565b60405180910390f35b34801561019557600080fd5b506101b060048036038101906101ab9190610e16565b61093a565b005b6101ba610b6d565b005b3480156101c857600080fd5b506101d1610c23565b6040516101de9190610ea5565b60405180910390f35b60006101f1610c47565b60008211610234576040517f08c379a000000000000000000000000000000000000000000000000000000000815260040161022b90610f1d565b60405180910390fd5b60008473ffffffffffffffffffffffffffffffffffffffff1663095ea7b37f0000000000000000000000000000000000000000000000000000000000000000856040518363ffffffff1660e01b8152600401610291929190610f3d565b6020604051808303816000875af11580156102b0573d6000803e3d6000fd5b505050506040513d601f19601f820116820180604052508101906102d49190610f9e565b905080610316576040517f08c379a000000000000000000000000000000000000000000000000000000000815260040161030d90611017565b60405180910390fd5b6000600267ffffffffffffffff81111561033357610332611037565b5b6040519080825280602002602001820160405280156103615781602001602082028036833780820191505090505b509050858160008151811061037957610378611066565b5b602002602001019073ffffffffffffffffffffffffffffffffffffffff16908173ffffffffffffffffffffffffffffffffffffffff168152505084816001815181106103c8576103c7611066565b5b602002602001019073ffffffffffffffffffffffffffffffffffffffff16908173ffffffffffffffffffffffffffffffffffffffff168152505060007f000000000000000000000000000000000000000000000000000000000000000073ffffffffffffffffffffffffffffffffffffffff166338ed17398660008530426040518663ffffffff1660e01b8152600401610466959493929190611198565b6000604051808303816000875af1158015610485573d6000803e3d6000fd5b505050506040513d6000823e3d601f19601f820116820180604052508101906104ae9190611331565b9050806001815181106104c4576104c3611066565b5b602002602001015193508573ffffffffffffffffffffffffffffffffffffffff168773ffffffffffffffffffffffffffffffffffffffff163373ffffffffffffffffffffffffffffffffffffffff167f764f0dc063c06f32d89a3f3af80c0db4be8a090901f589a478b447e0a51f09f1888860405161054492919061137a565b60405180910390a4505050610557610c8d565b9392505050565b60016020528060005260406000206000915090505481565b61057e610c47565b80600160003373ffffffffffffffffffffffffffffffffffffffff1673ffffffffffffffffffffffffffffffffffffffff168152602001908152602001600020541015610600576040517f08c379a00000000000000000000000000000000000000000000000000000000081526004016105f7906113ef565b60405180910390fd5b80600160003373ffffffffffffffffffffffffffffffffffffffff1673ffffffffffffffffffffffffffffffffffffffff168152602001908152602001600020600082825461064f919061143e565b9250508190555060003373ffffffffffffffffffffffffffffffffffffffff168260405161067c906114a3565b60006040518083038185875af1925050503d80600081146106b9576040519150601f19603f3d011682016040523d82523d6000602084013e6106be565b606091505b5050905080610702576040517f08c379a00000000000000000000000000000000000000000000000000000000081526004016106f990611504565b60405180910390fd5b3373ffffffffffffffffffffffffffffffffffffffff167f884edad9ce6fa2440d8a54cc123490eb96d2768479d49ff9c7366125a9424364836040516107489190610da1565b60405180910390a250610759610c8d565b50565b610764610c47565b600081116107a7576040517f08c379a000000000000000000000000000000000000000000000000000000000815260040161079e90610f1d565b60405180910390fd5b8173ffffffffffffffffffffffffffffffffffffffff166323b872dd3330846040518463ffffffff1660e01b81526004016107e493929190611524565b6020604051808303816000875af1158015610803573d6000803e3d6000fd5b505050506040513d601f19601f820116820180604052508101906108279190610f9e565b5080600260003373ffffffffffffffffffffffffffffffffffffffff1673ffffffffffffffffffffffffffffffffffffffff16815260200190815260200160002060008473ffffffffffffffffffffffffffffffffffffffff1673ffffffffffffffffffffffffffffffffffffffff16815260200190815260200160002060008282546108b4919061155b565b925050819055503373ffffffffffffffffffffffffffffffffffffffff167fe1fffcc4923d04b559f4d29a8bfc6cda04eb5b0d3c460751c2402c5c5cc9109c826040516109019190610da1565b60405180910390a2610911610c8d565b5050565b6002602052816000526040600020602052806000526040600020600091509150505481565b610942610c47565b80600260003373ffffffffffffffffffffffffffffffffffffffff1673ffffffffffffffffffffffffffffffffffffffff16815260200190815260200160002060008473ffffffffffffffffffffffffffffffffffffffff1673ffffffffffffffffffffffffffffffffffffffff168152602001908152602001600020541015610a01576040517f08c379a00000000000000000000000000000000000000000000000000000000081526004016109f8906115db565b60405180910390fd5b80600260003373ffffffffffffffffffffffffffffffffffffffff1673ffffffffffffffffffffffffffffffffffffffff16815260200190815260200160002060008473ffffffffffffffffffffffffffffffffffffffff1673ffffffffffffffffffffffffffffffffffffffff1681526020019081526020016000206000828254610a8d919061143e565b925050819055508173ffffffffffffffffffffffffffffffffffffffff1663a9059cbb33836040518363ffffffff1660e01b8152600401610acf929190610f3d565b6020604051808303816000875af1158015610aee573d6000803e3d6000fd5b505050506040513d601f19601f82011682018060405250810190610b129190610f9e565b503373ffffffffffffffffffffffffffffffffffffffff167f884edad9ce6fa2440d8a54cc123490eb96d2768479d49ff9c7366125a942436482604051610b599190610da1565b60405180910390a2610b69610c8d565b5050565b610b75610c47565b34600160003373ffffffffffffffffffffffffffffffffffffffff1673ffffffffffffffffffffffffffffffffffffffff1681526020019081526020016000206000828254610bc4919061155b565b925050819055503373ffffffffffffffffffffffffffffffffffffffff167fe1fffcc4923d04b559f4d29a8bfc6cda04eb5b0d3c460751c2402c5c5cc9109c34604051610c119190610da1565b60405180910390a2610c21610c8d565b565b7f000000000000000000000000000000000000000000000000000000000000000081565b600260005403610c83576040517f3ee5aeb500000000000000000000000000000000000000000000000000000000815260040160405180910390fd5b6002600081905550565b6001600081905550565b6000604051905090565b600080fd5b600080fd5b600073ffffffffffffffffffffffffffffffffffffffff82169050919050565b6000610cd682610cab565b9050919050565b610ce681610ccb565b8114610cf157600080fd5b50565b600081359050610d0381610cdd565b92915050565b6000819050919050565b610d1c81610d09565b8114610d2757600080fd5b50565b600081359050610d3981610d13565b92915050565b600080600060608486031215610d5857610d57610ca1565b5b6000610d6686828701610cf4565b9350506020610d7786828701610cf4565b9250506040610d8886828701610d2a565b9150509250925092565b610d9b81610d09565b82525050565b6000602082019050610db66000830184610d92565b92915050565b600060208284031215610dd257610dd1610ca1565b5b6000610de084828501610cf4565b91505092915050565b600060208284031215610dff57610dfe610ca1565b5b6000610e0d84828501610d2a565b91505092915050565b60008060408385031215610e2d57610e2c610ca1565b5b6000610e3b85828601610cf4565b9250506020610e4c85828601610d2a565b9150509250929050565b60008060408385031215610e6d57610e6c610ca1565b5b6000610e7b85828601610cf4565b9250506020610e8c85828601610cf4565b9150509250929050565b610e9f81610ccb565b82525050565b6000602082019050610eba6000830184610e96565b92915050565b600082825260208201905092915050565b7f416d6f756e74206d757374206265203e20300000000000000000000000000000600082015250565b6000610f07601283610ec0565b9150610f1282610ed1565b602082019050919050565b60006020820190508181036000830152610f3681610efa565b9050919050565b6000604082019050610f526000830185610e96565b610f5f6020830184610d92565b9392505050565b60008115159050919050565b610f7b81610f66565b8114610f8657600080fd5b50565b600081519050610f9881610f72565b92915050565b600060208284031215610fb457610fb3610ca1565b5b6000610fc284828501610f89565b91505092915050565b7f417070726f7665206661696c6564000000000000000000000000000000000000600082015250565b6000611001600e83610ec0565b915061100c82610fcb565b602082019050919050565b6000602082019050818103600083015261103081610ff4565b9050919050565b7f4e487b7100000000000000000000000000000000000000000000000000000000600052604160045260246000fd5b7f4e487b7100000000000000000000000000000000000000000000000000000000600052603260045260246000fd5b6000819050919050565b6000819050919050565b60006110c46110bf6110ba84611095565b61109f565b610d09565b9050919050565b6110d4816110a9565b82525050565b600081519050919050565b600082825260208201905092915050565b6000819050602082019050919050565b61110f81610ccb565b82525050565b60006111218383611106565b60208301905092915050565b6000602082019050919050565b6000611145826110da565b61114f81856110e5565b935061115a836110f6565b8060005b8381101561118b5781516111728882611115565b975061117d8361112d565b92505060018101905061115e565b5085935050505092915050565b600060a0820190506111ad6000830188610d92565b6111ba60208301876110cb565b81810360408301526111cc818661113a565b90506111db6060830185610e96565b6111e86080830184610d92565b9695505050505050565b600080fd5b6000601f19601f8301169050919050565b611211826111f7565b810181811067ffffffffffffffff821117156112305761122f611037565b5b80604052505050565b6000611243610c97565b905061124f8282611208565b919050565b600067ffffffffffffffff82111561126f5761126e611037565b5b602082029050602081019050919050565b600080fd5b60008151905061129481610d13565b92915050565b60006112ad6112a884611254565b611239565b905080838252602082019050602084028301858111156112d0576112cf611280565b5b835b818110156112f957806112e58882611285565b8452602084019350506020810190506112d2565b5050509392505050565b600082601f830112611318576113176111f2565b5b815161132884826020860161129a565b91505092915050565b60006020828403121561134757611346610ca1565b5b600082015167ffffffffffffffff81111561136557611364610ca6565b5b61137184828501611303565b91505092915050565b600060408201905061138f6000830185610d92565b61139c6020830184610d92565b9392505050565b7f496e73756666696369656e742062616c616e6365000000000000000000000000600082015250565b60006113d9601483610ec0565b91506113e4826113a3565b602082019050919050565b60006020820190508181036000830152611408816113cc565b9050919050565b7f4e487b7100000000000000000000000000000000000000000000000000000000600052601160045260246000fd5b600061144982610d09565b915061145483610d09565b925082820390508181111561146c5761146b61140f565b5b92915050565b600081905092915050565b50565b600061148d600083611472565b91506114988261147d565b600082019050919050565b60006114ae82611480565b9150819050919050565b7f5769746864726177206661696c65640000000000000000000000000000000000600082015250565b60006114ee600f83610ec0565b91506114f9826114b8565b602082019050919050565b6000602082019050818103600083015261151d816114e1565b9050919050565b60006060820190506115396000830186610e96565b6115466020830185610e96565b6115536040830184610d92565b949350505050565b600061156682610d09565b915061157183610d09565b92508282019050808211156115895761158861140f565b5b92915050565b7f496e73756666696369656e7420746f6b656e2062616c616e6365000000000000600082015250565b60006115c5601a83610ec0565b91506115d08261158f565b602082019050919050565b600060208201905081810360008301526115f4816115b8565b905091905056fea26469706673582212207d14c3776f839adc869a3df05609de709c186a52a0db22811f0f552aa340e92064736f6c63430008140033",
  "linkReferences": {},
  "deployedLinkReferences": {}
}